:020000040000fa
:080000000002040000000000f2
:020000040000fa
:0400080010030000e1
:020000040000fa
:04000c0010030000dd
:020000040000fa
:0400100010030000d9
:020000040000fa
:0400140010030000d5
:020000040000fa
:0400180010030000d1
:020000040000fa
:04001c0010030000cd
:020000040000fa
:0400200010030000c9
:020000040000fa
:0400240010030000c5
:020000040000fa
:0400280010030000c1
:020000040000fa
:04002c0010030000bd
:020000040000fa
:0400300010030000b9
:020000040000fa
:0400340010030000b5
:020000040000fa
:0400380010030000b1
:020000040000fa
:04003c0010030000ad
:020000040000fa
:0400400010030000a9
:020000040000fa
:04004400f6020000c0
:020000040000fa
:04004800e0020000d2
:020000040000fa
:04004c00100300009d
:020000040000fa
:040050001003000099
:020000040000fa
:040054001003000095
:020000040000fa
:040058001003000091
:020000040000fa
:04005c00100300008d
:020000040000fa
:040060001003000089
:020000040000fa
:040064001003000085
:020000040000fa
:040068001003000081
:020000040000fa
:04006c00100300007d
:020000040000fa
:040070001003000079
:020000040000fa
:04007400cc020000ba
:020000040000fa
:040078001003000071
:020000040000fa
:04007c00100300006d
:020000040000fa
:040080001003000069
:020000040000fa
:040084001003000065
:020000040000fa
:040088001003000061
:020000040000fa
:04008c00100300005d
:020000040000fa
:040090001003000059
:020000040000fa
:040094001003000055
:020000040000fa
:040098001003000051
:020000040000fa
:04009c00100300004d
:020000040000fa
:0400a0000003000059
:020000040000fa
:0400a400080300004d
:020000040000fa
:0400a8001003000041
:020000040000fa
:0400ac00100300003d
:020000040000fa
:0400b0001003000039
:020000040000fa
:0400b4001003000035
:020000040000fa
:0400b8001003000031
:020000040000fa
:0400bc00100300002d
:020000040000fa
:0400c0001003000029
:020000040000fa
:0400c4001003000025
:020000040000fa
:0400c8001003000021
:020000040000fa
:0400cc00100300001d
:020000040000fa
:0400d0001003000019
:020000040000fa
:0400d4001003000015
:020000040000fa
:0400d8001003000011
:020000040000fa
:0400dc00100300000d
:020000040000fa
:0400e0001003000009
:020000040000fa
:0400e4001003000005
:020000040000fa
:0400e8001003000001
:020000040000fa
:0400ec0010030000fd
:020000040000fa
:0400f00010030000f9
:020000040000fa
:0400f40010030000f5
:020000040000fa
:0400f80010030000f1
:020000040000fa
:0400fc0010030000ed
:020000040000fa
:0401000010030000e8
:020000040000fa
:0401040010030000e4
:020000040000fa
:0401080010030000e0
:020000040000fa
:04010c0010030000dc
:020000040000fa
:0401100010030000d8
:020000040000fa
:0401140010030000d4
:020000040000fa
:0401180010030000d0
:020000040000fa
:04011c0010030000cc
:020000040000fa
:0401200010030000c8
:020000040000fa
:0401240010030000c4
:020000040000fa
:0401280010030000c0
:020000040000fa
:04012c0010030000bc
:020000040000fa
:0401300010030000b8
:020000040000fa
:0401340010030000b4
:020000040000fa
:0401380010030000b0
:020000040000fa
:04013c0010030000ac
:020000040000fa
:0401400010030000a8
:020000040000fa
:0401440010030000a4
:020000040000fa
:0401480010030000a0
:020000040000fa
:04014c00100300009c
:020000040000fa
:040150001003000098
:020000040000fa
:040154001003000094
:020000040000fa
:040158001003000090
:020000040000fa
:04015c00100300008c
:020000040000fa
:0402080010030000df
:020000040000fa
:04020c0010030000db
:020000040000fa
:0402100010030000d7
:020000040000fa
:0402140010030000d3
:020000040000fa
:0402180010030000cf
:020000040000fa
:04021c0010030000cb
:020000040000fa
:0402200010030000c7
:020000040000fa
:0402240010030000c3
:020000040000fa
:0402280010030000bf
:020000040000fa
:04022c0010030000bb
:020000040000fa
:0402300010030000b7
:020000040000fa
:0402340010030000b3
:020000040000fa
:0402380010030000af
:020000040000fa
:04023c0010030000ab
:020000040000fa
:0402400010030000a7
:020000040000fa
:04024400f6020000be
:020000040000fa
:04024800e0020000d0
:020000040000fa
:04024c00100300009b
:020000040000fa
:040250001003000097
:020000040000fa
:040254001003000093
:020000040000fa
:04025800100300008f
:020000040000fa
:04025c00100300008b
:020000040000fa
:040260001003000087
:020000040000fa
:040264001003000083
:020000040000fa
:04026800100300007f
:020000040000fa
:04026c00100300007b
:020000040000fa
:040270001003000077
:020000040000fa
:04027400cc020000b8
:020000040000fa
:04027800100300006f
:020000040000fa
:04027c00100300006b
:020000040000fa
:040280001003000067
:020000040000fa
:040284001003000063
:020000040000fa
:04028800100300005f
:020000040000fa
:04028c00100300005b
:020000040000fa
:040290001003000057
:020000040000fa
:040294001003000053
:020000040000fa
:04029800100300004f
:020000040000fa
:04029c00100300004b
:020000040000fa
:0402a0000003000057
:020000040000fa
:0402a400080300004b
:020000040000fa
:0402a800100300003f
:020000040000fa
:0402ac00100300003b
:020000040000fa
:0402b0001003000037
:020000040000fa
:0402b4001003000033
:020000040000fa
:0402b800100300002f
:020000040000fa
:0402bc00100300002b
:020000040000fa
:0402c0001003000027
:020000040000fa
:0402c4001003000023
:020000040000fa
:0402c800100300001f
:020000040000fa
:0402cc00100300001b
:020000040000fa
:0402d0001003000017
:020000040000fa
:0402d4001003000013
:020000040000fa
:0402d800100300000f
:020000040000fa
:0402dc00100300000b
:020000040000fa
:0402e0001003000007
:020000040000fa
:0402e4001003000003
:020000040000fa
:0402e80010030000ff
:020000040000fa
:0402ec0010030000fb
:020000040000fa
:0402f00010030000f7
:020000040000fa
:0402f40010030000f3
:020000040000fa
:0402f80010030000ef
:020000040000fa
:0402fc0010030000eb
:020000040000fa
:0403000010030000e6
:020000040000fa
:0403040010030000e2
:020000040000fa
:0403080010030000de
:020000040000fa
:04030c0010030000da
:020000040000fa
:0403100010030000d6
:020000040000fa
:0403140010030000d2
:020000040000fa
:0403180010030000ce
:020000040000fa
:04031c0010030000ca
:020000040000fa
:0403200010030000c6
:020000040000fa
:0403240010030000c2
:020000040000fa
:0403280010030000be
:020000040000fa
:04032c0010030000ba
:020000040000fa
:0403300010030000b6
:020000040000fa
:0403340010030000b2
:020000040000fa
:0403380010030000ae
:020000040000fa
:04033c0010030000aa
:020000040000fa
:0403400010030000a6
:020000040000fa
:0403440010030000a2
:020000040000fa
:04034800100300009e
:020000040000fa
:04034c00100300009a
:020000040000fa
:040350001003000096
:020000040000fa
:040354001003000092
:020000040000fa
:04035800100300008e
:020000040000fa
:04035c00100300008a
:020000040000fa
:10040000af8420000edf20000e01880000000000f5
:10041000000020000000e000020032000001200087
:1004200020028800140007007f0007000000e000a1
:1004300003003a00807d2200010020000200370006
:100440000000200001002000810f70000100320038
:1004500014000700000020000000e000020032004d
:1004600000000200000000002a2802000000000036
:100470000040da000000fe004440a900e002200035
:100480000000e0000300320000002000a00188000e
:100490004440a800000006008a1f78008b1f7800e7
:1004a0000000060091018800800478000000eb0045
:1004b0001a003700e284440032a0b4009905ba0063
:1004c000e284440032a0b4009906ba00e2844400f9
:1004d00032a0b4000006eb00476fde00fd07b2005b
:1004e000636ce10003003a00ebff07000000eb0043
:1004f0000a003700606ce10004003a00005deb0088
:100500008b05e900fdff3e00040037006168e10053
:10051000010032000086eb000b00070019c7ba008b
:100520001905ba000e04e00003003a000a00e000da
:10053000e0ff3a0000000600fe07b2009e018800be
:100540008a047800f5ff3700395dba008b05e900b1
:100550000c003200295dba008b05e900080032006a
:100560000c00e00003003a00e284440032a0b40032
:10057000f5ff370019ddba008b05e900faff3a00f4
:100580008904e800e184440032a0b40000000600c1
:100590000000000000000000801f78000000fa004a
:1005a00010c0b30008e8b700100020000040880029
:1005b0008660a9000080fa004f0078000040060025
:1005c000801f78000000fa008500a90013e1a9004f
:1005d00010c0b30009e8b7003000200000408800d8
:1005e0000080fa004f007800004006000000fa008a
:1005f00084e0a90011e1a9000080fa000040060093
:100600000000fa0087c0a9000080fa000040060040
:100610000000fa0087e0a9000080fa000040060010
:100620000040da000000fe00000005000001be00ee
:100630001e0007000470a70003f0a10003f8a30048
:1006400013003a006509b1001000320009003500be
:100650006928e100020035000100280000000500c3
:1006600000004000818048008502e900fcff3a005c
:1006700000000600f88f4200050035008100d1001f
:100680000080d3008502e800fcff3a00000006006d
:100690008000eb00000005004f89de008201780039
:1006a0007e0237006011b8008c023700c70ade00f6
:1006b000f107b200f50fb20008003200e1cf4200ae
:1006c000020032000170a00024000500810f7000bc
:1006d000010032000408050044000500810f70008d
:1006e00002003a00140005008502e9000000400005
:1006f00081c04800fcff3b000170a0002400050001
:10070000889fbe008a9fbe008c9fbe001b002000f9
:100710000202be0005866800060028000606660084
:100720004709de00f20fb200820032000243e80007
:1007300080003200c729de00f30fb2007d003200d6
:100740000343e8007b003200f107b2000170a00013
:10075000f507b2000570a000c708dd004903de0000
:10076000868070004700dd00c72add004923de00d7
:10077000868272004722dd00030551000403500009
:10078000858358000300310000004000818048004c
:100790000a05e9008c1f78008a9fbe000400500003
:1007a000858058000402420085824a000000400013
:1007b000818048000005eb000004be006033b800f3
:1007c0000406be000d48e10056003100110009008a
:1007d0004dccd8000c01b8000d02b8008481410056
:1007e00060824a008283530003045c0084845c00be
:1007f00060055d000a00e00025003a0080057800f1
:100800000d40e100490031008800780007007800c1
:10081000110009004d88d8000c01b8000d02b80085
:100820008481410060824a006003110083835b0081
:1008300004045c00e0845c000900e00021003a0050
:100840004f01be000300e0002b003200e301600016
:10085000070673008c817100010032006400700093
:100860004200de004e5edd000c007000c258de006b
:1008700001e0a00083010700cf01780081807100b2
:100880004f06be004f05be004f04be00000006002c
:100890008c8343000d044c00e0844c0060054d0047
:1008a0000000e9000a00e000d4ff32008c8343001e
:1008b0000d044c00e0844c0060054d000000e90090
:1008c000ceff37000c0343008d834b0060044c00c7
:1008d000e0844c000000e9000900e000d8ff32008d
:1008e0000c0343008d834b0060044c00e0844c00fb
:1008f0000000e900d2ff37004200de004e5edd005e
:100900000c007000c258de0001e0a000cf017800aa
:100910000300e000daff320060001000e080180001
:10092000d7ff3700f0ff2f00aaff3700f0ff2f009e
:10093000b9ff37000404be002f01070087067800c6
:100940000004fd008104fd002b0107000783660001
:100950000678a300030032000960a7000800be006b
:100960002c0037000d78a300020032000800be0002
:10097000280037000778a30026003a0001f0a10004
:1009800009f0a1000668a30003003200f1ff270070
:10099000f0ff2f00baff37000d68a30003003200fc
:1009a0000800be008c807000b5ff37000768a30008
:1009b00007003a000648a30003003200f1ff2700b9
:1009c000f0ff2f00aeff37000d48a30003003200f8
:1009d0006000b8008c807000a9ff37000748a300b2
:1009e0000400320001f82700000020008c80700015
:1009f000a3ff3700760107000004fd008104fd001d
:100a000002057800720107000802be008a01780022
:100a100059ff37000160a0001202200082408800c8
:100a200097ff37000100e000120032000500e000ef
:100a300010003200889fbe008a9fbe008c9fbe00bf
:100a40000006eb0001f8a300030032006000100074
:100a5000e08018000cf0a00005f8a30003003200ad
:100a600060021200e0821a000cf0a2008005eb0088
:100a700041ff37006000b8000200050003836800f2
:100a80000700280007036300470ade000480a10076
:100a9000c71ade000580a100f70f20000720e10043
:100aa000420032000728e10040003200889fbe006b
:100ab0008a9fbe008c1f7800f107b200f307b200d6
:100ac0000400e000640032000170a0000500e000b6
:100ad000680032000370a00085054200eb07b100fa
:100ae0000204b8000302b8008484440060854a0010
:100af000020ab800848444000a854a00030ab80048
:100b000004054500040033000804d0008984d200a5
:100b10000a85d2008b05e9006158e1003d003500ef
:100b20000210200009016100030820008981610092
:100b3000f70720008783640008867300c84cde0036
:100b4000c853dd00878474004855de000300e000d0
:100b50000600320082037600040032008904e800b7
:100b600060054d000a88a3000c003a00f70f200032
:100b70000758e10044003d000a70a100c75ddd0098
:100b80000a8575008a007300090078004f06780016
:100b90004f05be004f04be00000006000a05d1004c
:100ba0008984d3008b05e800f0ff3700881f7800a8
:100bb0000604780090000700070278000001fd009d
:100bc0008101fd008c000700870278008503720018
:100bd0000778a300050032000001fd008101fd003f
:100be0009f0007004f047800000006008503720094
:100bf0000748a30003003200f0ff2f00f1ff270099
:100c0000f8ff37000000200001f8270088807000fe
:100c1000f4ff3700880178004848dd0080817100ca
:100c20004848de00c850dd0001007000c850de00fa
:100c3000060478000b017800160007008880700019
:100c4000d2ff37000500e000050032001700200049
:100c50003a0007009dff370081037000f9ff3a005a
:100c6000860078004f0678004f05be004f04be0096
:100c70000000050083037100f9ff32002700200007
:100c80002e00070094ff370001f8270086807000cf
:100c9000f4ff37000100e00026003200610111007e
:100ca0007810e10023003c006022b8007010e100e1
:100cb0000400350080027800010078008000eb001d
:100cc000700151000200e0000900340070031100bf
:100cd000062add00822ade008603dd00878272009c
:100ce0000200de00860bdd00070070008208de00d7
:100cf00084817100f4ff2700048262008481710006
:100d000004002800848262006102600005f0a600f1
:100d10000000060004827100070032000000e800b5
:100d2000e0804800000006000002be006000b8003d
:100d3000efff37006000b80000000600889fbe008b
:100d40000004eb006138e10016003a000100e00009
:100d500008003a00c800de004800dd0088002000de
:100d60000100e00003003a00c800de004800dd009a
:100d7000680444008184cf00e984540006003400f4
:100d80008908dd00f08314008703de00878070008f
:100d90000900dd0009044400610214004f04be0094
:100da000000006000300e00008003a00c811de0061
:100db0004811dd00880020000300e00003003a0035
:100dc000c811de004811dd00680444008384cf00b0
:100dd000e9845400060034008919dd00f083140012
:100de0008713de00878171000911dd0009044400ca
:100df000e1021400e9ff37002700200001f0a700fe
:100e000017002000470bde00f60fb200040032008e
:100e10000643e8000a0032004702b3000000060063
:100e200001037800f607b2000603700002003a00e2
:100e30000703b300000006008702b30000000600ad
:100e400001037800f607b2000603700002003200ca
:100e50000770a000000006000760a0000000060068
:100e60000478a300040032000578a30003003200d8
:100e70000168a30001003a000200be000160a0006a
:100e80000000060081017000270032008002eb00a4
:100e900001f8a3000300320060001000e080180099
:100ea00015002000f4072000020242002000340058
:100eb000f70320008703600006042000000363009e
:100ec00002082000000161004700de00c909dd00c2
:100ed00000807100c708de000600e0000800320054
:100ee00087037100060032001000b0000180b000de
:100ef0000188a30002003200c108de000402e800fd
:100f0000f107b200f30f20000320e10003003d00d1
:100f10004722dd00810072002900370001f8270018
:100f20000000eb00260037006000b800000006005b
:100f3000680212007f20e100020034006000b80067
:100f40001f0037006011b8007020e1000400350078
:100f500080017800010078008000eb0070025200f0
:100f60000400e00009003400f00312000719dd005e
:100f70008419de000703dd00868171000400de00b5
:100f8000070bdd00060070008408de00f7ff270075
:100f90008383630087037100060028000303630056
:100fa000070032000700e00003003a006101600022
:100fb00002817300020032001000b0000180b00016
:100fc0000500a6000000060001f0a00000000600d9
:100fd0004f0ade004709de00f107b200f20fb2004f
:100fe0000b003200f207b1000170a000c708dd005d
:100ff000c901de00838070004700dd000400a60008
:101000000000060060001000e080180000000600ec
:10101000810f700001003a00000006008182cf00bd
:101020000500e00010003e008082cf00ee8242000a
:101030007028e1000400390007003e0080007800bd
:101040000000eb000e003700708312008600de0007
:101050000500dd000a003700708352008600dd00c5
:101060000000eb0006003700e28252008508dd0038
:10107000708312000603de00868070000500dd002c
:101080007507b0000501ea000400a6000000060094
:1010900060001000e080180000000600881f780043
:1010a000030478000300e00007003d00600010002a
:1010b000e080180060011900e081190002003b0087
:1010c00001f02d00030037000400070008f0a7001e
:1010d00001f0a0004f04780000000600889fbe00c9
:1010e0008a9fbe00008270000402710004827100b9
:1010f000260032000004be000200be006011b800ed
:101100006b092000950220000182cf000a003900ff
:101110000541b1000082cf00070039000541b10050
:101120000982cf00040039000541b1000882cf00d8
:10113000010039000541b1000542520012003200a1
:101140000a003b0082817100610164008100d100ce
:101150000080d3008984d3000884d3008b05e80085
:101160000442e800f7ff3a00070037000804440093
:1011700089844c0000004800818048008b05e9000c
:101180000442e900f9ff3a00030007004f05be00e2
:101190004f04be0000000600810020006180550061
:1011a0000b003d000b00200061fe2f000100e1005c
:1011b0001d00340082817100610164008904d10046
:1011c0000884d3000000e800faff3a007100200014
:1011d000610064000300700002006000090032003a
:1011e00061044400e0844c000988a5000500320039
:1011f0008b05e8006808e10002003a008904d1008c
:101200000884d300f20f20000258e10005003d00e1
:10121000c75ddd00f907b20089807500080078001d
:10122000000006000bf827008b0078000000050086
:101230004f02b000889fbe008a9fbe008c9fbe00f8
:101240008e1f78000005be000204be00b2af9f00f2
:10125000c3af9f00b2b79f00c3b79f00cfae970048
:101260000df0a10002067800e00f5600e08f5e004e
:10127000c0033200faaf9f008bb79f000000200030
:1012800001f82300800f5500818f5d00b903320003
:101290008fb2970005f0a1007faa970094b79f0036
:1012a000a5b79f000000200001f82700800f520022
:1012b000818f5a0003003c00800f5600818f5e0032
:1012c000040034000a01be000800be004f0a0700f7
:1012d000af0337006033b8007fa997008fb1970044
:1012e000e00f5100e08f590029003d00260020004a
:1012f00007002000f0ff2f00f1b72400800f5600f8
:10130000818f5e0022003c006033b800f0ff2f00a8
:10131000f1f72300800f5600818f5e003300340008
:1013200047e8de00cfe8de00f007b1000180b10041
:10133000770110000c00be00820178008301e900f3
:10134000030033008180d1000080d300fbff370011
:101350000003be00020778000e07e9000300330017
:101360000603430087834b00fbff37000601be00e6
:101370006033b8008c0f51008d8f59001b003a006c
:101380006103600062031300e0831b001700370055
:101390000000200001f82700800f5600818f5e00ba
:1013a00012003a000000200001f82300800f5200d4
:1013b000818f5a006f033200060034003fb097005f
:1013c000cfb09700e00f5000e08f580071033d0050
:1013d0006b0337003fb19700cfb19700e00f51008a
:1013e000e08f590066033d006900370000002000cf
:1013f00001f82300800f5600818f5e0009003a003b
:101400003fb29700cfb29700e00f5200e08f5a0032
:101410005d033d000a01be000000200001f823002a
:101420005500370000002000010024003fb1970064
:10143000cfb19700800f5100818f590003003a000f
:101440000a01be000a00be00480337000000200069
:1014500001f023003fb19700cfb19700800f5100fa
:10146000818f590008003a007fa897008fb097003d
:10147000e00f5000e08f5800030035000a00be0066
:1014800075030700420337000a00be00f4b79f004f
:1014900085bf9f00d6b79f00e7b79f00f8030700fe
:1014a0000200200003f827007fb297008fba970050
:1014b0005fb39700efb39700820f5200838f5a00fb
:1014c00008003200e00f5200e08f5a0005003200a1
:1014d0000200200003f82300820f5200838f5a007d
:1014e0002d003a003fb19700cfb19700e00f5100b7
:1014f000e08f59000c003d000001be0000002000fc
:1015000001f82300f4b79f0085bf9f00d6b79f0066
:10151000e7b79f007afc07007fb297008fba970069
:101520005fb39700efb397007fa997008fb1970043
:10153000e00f5100e08f590015033d00020020002c
:1015400003082c0004024100858249000402730054
:1015500085827300e00f5200e08f5a0008003a00c5
:1015600012022000424288000001be000200be00bc
:101570009d0907000001be0061fc0700040337005d
:10158000e10f5300e08f5b0001033a000004be004e
:1015900009f0a200ff0237007fa997008fb19700e2
:1015a000e00f5100e08f59000d003d00e00f5300a7
:1015b000e08f5b0004003a001002200040428800e7
:1015c0000a01be00e9ff3700e10f5300e08f5b0026
:1015d000080032000600200007f82300070037004b
:1015e0000200200003f82300f2af9f0083b79f00a2
:1015f000040037000600200007f82b00f6af9f001c
:1016000087b79f000200200003d02400820f5600fd
:10161000838f5e005600340072ff2f00f3f7230023
:10162000820f5200838f5a0006003c003fb09700a3
:10163000cfb09700e00f5000e08f580004023d004b
:10164000e20137007200200003f82300820f5200ed
:10165000838f5a00060034003fb19700cfb1970046
:10166000e00f5100e08f5900d8013c00f80137002d
:101670000200200003f823005b0907000005be00fc
:1016800002a02a0083fb2300fcfc070090b79f0008
:10169000a1b79f0002572a00c36e23000a00be00b4
:1016a000f6fc07000002be000a01be000a00be00f0
:1016b000f4b79f0085bf9f00f0fc07000006be0046
:1016c0000200200003e823000a00be00ebfc070034
:1016d0000001be00b0aa2a00a1ea230042090700c7
:1016e0000001be000a00be00e4fc07000001be00cd
:1016f0000000200001f023003b0907000001be00ac
:101700000c00be00ddfc0700b2a32a0083fb23000f
:10171000dafc07000001be007fb297008fba970085
:101720000400be00300907000005be000001be0035
:101730001fb09700afb09700340907000001be004a
:101740008300780004002f00020062000003be0046
:10175000b6b79f00c7b79f001fb19700afb1970002
:10176000210907000001be000a00be005601370033
:101770006011b800f6ff2f00f7072000860f520017
:10178000878f5a0007003c000200200003b82400a5
:10179000bafc070090b79f00a1b79f0082fe2f0000
:1017a000f3ff2f00f207b1000380b1002fb29700c2
:1017b00047a0de0084027800cfa8de0002034000cc
:1017c0008383480096af9f00a7af9f0085007800f5
:1017d000f107b2001fb097000200200003f82300b9
:1017e000020270008382700094b79f00a5b79f002b
:1017f0006033b800d6af9f00e7af9f0012472c00c0
:10180000c3012000820f5000838f58001a0034005b
:101810001200200003002000d2af9f00e3af9f0022
:10182000623d2b00d3052000820f5000838f5800ab
:10183000110034001faa9700afaa9700610242006e
:10184000e0824a0094af9f00a5af9f0000002000f7
:1018500001f82f001fb39700afb3970006034000b5
:101860008783480096b79f00a7b79f006000b80025
:10187000d0af9f00e1af9f00dfa89700c208dd0056
:1018800081af9f0000832000010040001005be00d2
:101890000a01be001fb09700afb09700d208070042
:1018a0000006be000a01be001fb09700afb097004f
:1018b000d60807000001be000000200001f8230048
:1018c0008ffb07000002be000001be000c00be003e
:1018d000f4b79f0085bf9f0068fc07000003be00af
:1018e0000e002f0081017800c3b79f000001670040
:1018f000b2b79f005fa89700efa89700c500dd0072
:1019000000002000d0af9f00e1af9f00000020004a
:10191000010420005fa99700efa997000201400091
:1019200083814800d2af9f00e3af9f001fb09700b4
:10193000afb097008181d1000081d300830078008f
:1019400001d0a1000200670001d0a0005fa99700ac
:10195000efa997000201400083814800d2af9f00a9
:10196000e3af9f005fa99700efa997003fb09700f2
:10197000cfb09700d6b79f00e7b79f003ffc0700a6
:101980000001be000c00be00970807000006be0064
:101990000a01be005fa89700efa897009208070011
:1019a0000001be001fb09700afb097008e0807007f
:1019b0000001be003fb09700cfb097002ffc07009a
:1019c0000001be000c00be00870807000001be0039
:1019d0007fb297008fba97000400be0027fc070073
:1019e0000006be005fb39700efb397000601be008c
:1019f0000600be0021fc07000005be000001be007d
:101a00001efc07000002be0022142f0033e5230055
:101a10000a00be00f4b79f0085bf9f0017fc0700b7
:101a200052252300c3e62300780807000001be000a
:101a30000a00be0011fc070052302a00b3e8230060
:101a4000720807000001be000a00be000bfc070080
:101a5000b2aa2a00a3ea23006c0807000001be0016
:101a60000a00be0005fc070072db2600b3ed230070
:101a7000660807000001be000a00be00fffb070069
:101a8000a299290093f12300600807000001be001d
:101a90007fb297008fba97000400be00f7fb0700e3
:101aa0000005be005fb39700efb397000601be00cc
:101ab0003fb09700cfb09700540807000001be0068
:101ac0000c00be00edfb07000001be000a00be00d6
:101ad0004e08070090b79f00a1b79f003fb1970045
:101ae000cfb197000200be00e4fb07000005be0076
:101af0000200200003042400440807001fb19700df
:101b0000afb197004108070081027800000267002a
:101b10000401be003fb09700cfb09700f4b79f001c
:101b200085bf9f00d5fb0700b0b79f00c1b79f00de
:101b30007fb297008fba97000401be000c00be0070
:101b4000cefb07000006be000200200003042400b4
:101b50007fb297008fba97000400be0022080700ea
:101b60000a01be00200807000001be001fb0970058
:101b7000afb097001c0807005fb39700efb3970062
:101b80000601be00bdfb07000001be000c00be0048
:101b90001e0807000005be000001be003fb0970010
:101ba000cfb0970019080700810278000002670093
:101bb0000200240063f723000400be00f4b79f0076
:101bc00085bf9f00adfb070090b79f00a1b79f00a6
:101bd000623c2200638f2b007fb297008fba970080
:101be0000400be00a5fb07000006be003fb1970041
:101bf000cfb197007fb297008fba97000400be0064
:101c0000f90707000001be000a00be00f607070042
:101c1000f284230063f7230098fb07000001be0055
:101c20000c00be00f9070700828320008fab9700ed
:101c3000070141001201be00f4070700d0af9f006a
:101c4000e1af9f001fa89700afa8970092fa070086
:101c50000006be00008420008fa99700030040000a
:101c60001005be005fa99700efa997001fb097006d
:101c7000afb09700e50707000a01be00e3070700c1
:101c80000c01be00e10707000001be0083007800e0
:101c9000020067000002be00b4b79f00c5b79f00f6
:101ca0000c01be00d00707000a01be00ce070700e6
:101cb0001fb19700afb19700cb0707000001be002e
:101cc0005fa89700efa89700c70707000005be00b0
:101cd000cfaa970000002f00bfab9700070260005b
:101ce0000401be000800be00f4b79f0085bf9f003e
:101cf000bd0707003fb19700cfb197005ffb07001a
:101d00000006be000a01be000800be005bfb070023
:101d10000001be000c00be00bc0707000004be00ae
:101d20003fb19700cfb197007fb297008fba97006d
:101d30000400be0051fb07000005be00b0b79f00c5
:101d4000c1b79f000a01be000800be00af07070030
:101d50000006be000003be00000020000130240089
:101d6000800f5600818f5e0018003c00800f5600e7
:101d7000818f5e001d003a00c2a32a008333230036
:101d80000800be00dcb79f00e7b79f009f07070071
:101d90000002be000a01be000c00be00f4b79f00a6
:101da00085bf9f00900707000001be007fb297002b
:101db0008fba97000400be00830707005fb3970047
:101dc000efb397000000e00029003400a22c2f00a0
:101dd000931427007fa897008fb0970027fb070078
:101de000a22c2f0093142700e00037008701780011
:101df00003f0a1000c0178000000200061312400f4
:101e0000800f5100818f590011003c00000020001c
:101e100061312c00800f5600818f5e0014003a0063
:101e20000a01be000c00be00dcb79f00e7b79f00b0
:101e30006d0707000001be000800be006007070034
:101e40005fb39700efb397000000e00008003c008c
:101e50000226240023da20007fa897008fb0970085
:101e600006fb07000226240023da2000bf0037000b
:101e70008701780003f0a100060178006022b80015
:101e80000000200001f02300800f5100818f5900d5
:101e90003a0034004798de0022f82f00000141008c
:101ea00000002000010820000201e90003003300c7
:101eb0008180d1000080d300fbff37000000430089
:101ec00081804b00010678008c01780003f0a100ae
:101ed000479ade00cf9ade000401be00f207b1008f
:101ee0000380b100b2b79f00c3b79f00f4ff2f007b
:101ef000f5072000bfb197008301e900030033001c
:101f00008582d1000482d300fbff37000482ea00ff
:101f10008582ea008501660000016200fd0720005d
:101f20008d026600000278000570a0003fb79700a0
:101f3000770017000000e900030033008582d1001c
:101f40000482d300fbff3700e00f5300e08f5b00fb
:101f500002003d0060021200e0821a000a00be008a
:101f6000f4b79f0085bf9f001f070700b0b79f0011
:101f7000c1b79f008fba97007fb297003fb197001b
:101f8000cfb197000800be00f4b79f0085bf9f0047
:101f90001e07070081067800020028000006610085
:101fa0000220270013f323000c00be00b3fa070041
:101fb0000005be003fb19700cfb197000c00be00f6
:101fc000090707000001be000800be000607070061
:101fd0008221270013f32300a8fa07000004be00a3
:101fe000c2e82b00f35b23000c00be00a3fa07003d
:101ff0000001be000800be00040707000006be0086
:102000000001be000a00be00000707000004be0079
:102010000a01be00f40607000001be000c00be006d
:10202000f1060700b0b79f00c1b79f000801be00ce
:102030000800be0091fa07000005be00c2b42b00e4
:10204000133323008dfa0700e2a02e00d35d230096
:10205000e50607000001be000a00be0087fa07007f
:1020600052352b00a3882300e80607000001be00bc
:102070000a00be0081fa070012b6200063b32300f5
:10208000d90607000001be000a00be007bfa070067
:10209000b2aa2a00a3e22300dc0607000001be006a
:1020a0000a00be0075fa07000001be000800be006d
:1020b000cd0607000005be000001be000800be00fe
:1020c0006efa07000006be00020020000300240094
:1020d0000a00be00c40607000001be000c00be00de
:1020e00087f907000005be003fb19700cfb1970008
:1020f0000800be0061fa07000001be003fb0970073
:10210000cfb09700c10607000001be000a00be0064
:10211000b50607000801be00b30607000001be00b7
:102120000000200001f82300af0607007fb29700ef
:102130008fba9700c721dd00020020000201400095
:1021400083814800479bde00cf9bde00e00f5300f9
:10215000e08f5b0003003c000401780014000700de
:102160000001be007fa897008fb0970043fa0700d8
:10217000070037000800200009f823000500370099
:102180006044b800030037000a04be0001003700b5
:102190000004be000800be004f0778004f06be00d6
:1021a0004f05be004f04be004f02b1000000060004
:1021b000889fbe0002047800f9072000890f5400b0
:1021c0000d0034000200200003f027002bfa070066
:1021d000f807b100890f54001700340002002000f6
:1021e00003f0270025fa0700f807b100890f540013
:1021f00010003c001000370029f82f00890f540010
:102200000d003d000200200003c820001bfa07005b
:102210006806b000890f540007003d00020020004e
:1022200003c8200015fa07006806b000890f5400a3
:1022300001003d0009047800f20720000801410078
:10224000cf91de00c711dd00020020000bfa07006d
:102250004f04be0000000600889fbe008a9fbe009b
:102260008c9fbe000004be000400200005f827007b
:102270008583600004037800840f5300858f5b0022
:1022800007003a000801be000800be00fbf9070085
:102290000001be000800be005c0607001000370009
:1022a000e00f5000e08f58000f003c0081017800e3
:1022b00003f0a10000017800e00f5100e08f590009
:1022c0006a00320010022000404288000801be006f
:1022d0000800be00440607000001be0008f9070020
:1022e0000004be0061003700478cde00cf8cde00aa
:1022f000e00f5400e08f5c000f003a006044b8002b
:102300000400370000004000818048006104440060
:10231000e0844c0004002000050820008181620058
:1023200004017800e00f5100e08f5900f5ff320002
:1023300061041400e0841c00f807b1000980b100ba
:1023400081017800f307b200000178000200be00ae
:102350000170a0000808a300020032000000400045
:10236000818048008984d1000884d30000004000a7
:10237000818048009401200002002000031020000a
:102380006055b8006066b8000c0341008d834900b9
:10239000800f5300818f5b0006003c000606410061
:1023a0008786490006005000878058000a054100d2
:1023b0008b85490000004000818048008301d100e6
:1023c0000281d3000402e900efff3a00e00f500061
:1023d000e08f58001b0032000226240023da200080
:1023e0000000200001f82300ff0507000200200084
:1023f00003f82300f40507000000e0001100350099
:102400000226240023da20000000200001f8230027
:10241000fe0507000200200003f82300ea0507007c
:102420000000e0000300340062054500e0854d0037
:10243000040037006000b800610065000005450039
:1024400081854d00c744dd00080020000000200009
:1024500001f0230008044000898448008b85d100e6
:102460000a85d3000804450089844d000800be0099
:102470004f06be004f05be004f04be000000060020
:102480000001be008300780001f0a1000200780086
:10249000000006000000fa0068815700cfb89700de
:1024a000120207000080fa00000006003600070054
:1024b0008e0007003f01070067010700c00007000a
:1024c000620207000d023700800178000200370029
:1024d000b15978000201e9000200e000fcff3a0077
:1024e00000000600889fbe000004be0008007800bf
:1024f0000d00070000004400890078000300070079
:10250000080078004f04be0000000600881f780015
:1025100000047800080078000a0507000800780029
:102520004f047800000006008000780004003700a7
:102530003104e00002003a000000510000000600f3
:10254000010178000108a300f9ff3a008101780039
:1025500031017800f4ef2f00020242000281ea000c
:10256000020162000408280004016100f7ff320044
:1025700083007800010178003104e000fdff3a009b
:102580000000510000000600ec874700889fbe0055
:102590008a9fbe008c9fbe008e1f780000067800c8
:1025a000010478001807900028059000980678002c
:1025b000cdb79f00b80590003202be002203be00d6
:1025c0000400be000601be004f18de006011b80016
:1025d0008000eb00d0b79f00e1b79f00f2b79f00eb
:1025e00083bf9f00800478000900e00006003200ed
:1025f0006000b8006011b8000402500085825800e5
:1026000006035900878359000e00e00002003500e0
:102610000d10a100cdb79f000900e00005003a00b1
:102620004fb097000028a30002003a000038a30032
:10263000020032008a00e900010037008a007800b9
:10264000f8815700a20020000800780086000700eb
:102650000900e00003003a00cfb097000128a30072
:10266000080032000000e90000814500b1c2b3005b
:102670000900e00001003200d1c2b3000149780036
:10268000050037000138a300030032000000e90014
:1026900001c2b30081757800480190000201e90091
:1026a00000015100808045004fb297008a017800f8
:1026b0000c007800300207009c0090000188a30005
:1026c0000400320098009000810f500001003d008e
:1026d000010078004f0778004f06be004f05be008e
:1026e0004f04be00cf00b100000006000200fa0057
:1026f000889fbe008a9fbe00800578000104780094
:1027000002007800180190002805900098007800d9
:10271000b1bf9f00b80490000200e0000200350045
:102720000110a100b1bf9f00ea8157008200200084
:102730008a0078003002be002003be000800780046
:10274000490007003fb99700f00061000300320024
:102750000000e90001c3b300817478003fb997001d
:10276000e8006100030032000000e90001c2b3008c
:1027700081747800480190000201e90000015100d5
:10278000808044003fba97008a0178000b007800ef
:10279000f90107009b0090000188a30004003200ab
:1027a00098009000810f500001003d00010078006a
:1027b0004f05be004f04be000080fa000000060076
:1027c000ea874700889fbe008a9fbe008e1f780060
:1027d00000047800030078007287570084e2260026
:1027e00055c72600049fbe00c3962200030f780041
:1027f0006c875700004feb0011059000a10490007a
:10280000910578000200e000020032000207780023
:1028100001003700728757000000e00002003a0014
:102820000e00780040ff07000a00e00003003500ba
:102830008a0f5000010036000a0078000b02780071
:1028400089017800000178008e0078000800780087
:10285000c90107004f0778004f05be004f04be00b6
:10286000af00b10000000600f4874700889fbe005b
:102870008a9fbe008c9fbe008e1f78000605be009a
:102880000404be0081bf9f0082b79f00f3b79f0082
:10289000b0009000e1b79f001301780092b79f004d
:1028a00090069000400090000000e90000067800cb
:1028b0000d00e00001003d001d0020008040eb0005
:1028c000efb19700817178001e0020001f003700d3
:1028d0000c06e9000fb09700cf80de006109b90057
:1028e000a0b79f00b1b79f00c2b79f00d3b79f00aa
:1028f0000203be000002be000800be000a01be00c6
:1029000047060700000778000e4078000043b0003b
:10291000efb0970080707e008d06e9000fb9970038
:102920000201e90082bf9f002fb29700bfb297005b
:102930004fb39700dfb397000800be000a01be0046
:10294000300607000205be000004be000c00e000d7
:102950000d003400e00f5400e08f5c00e00f5d00dc
:10296000e08f5d00daff3a000d00e000d8ff3c0088
:102970008fb997000300e000030034001fb09700f8
:102980000018a300d2ff3a000e00e00002003a0057
:10299000ffb097001140a1000c0078004f077800ad
:1029a0004f06be004f05be004f04be004f01b100f0
:1029b000000006000200fa00889fbe008a9fbe0049
:1029c00000057800010478000200780018019000ea
:1029d000a804900098007800b1bf9f00b80590004f
:1029e0000200e000020035000110a100b1bf9f000d
:1029f000ea815700a2002000890078003002be0062
:102a00002003be000800780097ff070048019000ef
:102a10000201e90000015100808045003fba9700a3
:102a2000890178000a007800530107009a0090009d
:102a30000188a3000400320098009000810f50002c
:102a400001003d00010078004f05be004f04be00ac
:102a50000080fa0000000600fa874700889fbe0049
:102a60008a9fbe008c9fbe008e1f78008004780075
:102a70000104780082057800180190002805900074
:102a800018077800b80090000200e000020035004e
:102a90000e10a10001003700120020007000670036
:102aa000e0b79f00090032003b02be002b03be00ce
:102ab000e00f5200e08f5a00e00f5b00e08f5b00f8
:102ac000020032008a86e900010037008a06780099
:102ad000e8026700f5b79f00010032008d06e900ab
:102ae0003b02be002b03be00e4af9f00f5af9f008a
:102af00086b79f0097b79f00480690000c06e90034
:102b00000040eb0080707e00efb297007fb297002c
:102b10008903780081047800d8af9f000204780010
:102b20008bbf9f008a057800034578002a00370094
:102b30000c06e9006fab97006f006300e90f5000cf
:102b400002003c000003b000010037007005b00037
:102b50000a03fb001604b100f90f53000c003e00fd
:102b6000000378000650a0001606b100f90f5300cc
:102b700007003e00b4b79f00a5b79f00c7b79f00ee
:102b800097030700cfb39700afb297003fb297000b
:102b900080747e000804e9008d06e9006fa89700a4
:102ba000ffa897000fb197009fb197004600200043
:102bb0008301d1000281d3008180d3000080d30043
:102bc0000603e900faff3a00e0af9f00f1af9f0073
:102bd00082b79f0093b79f00e10f56000f003400ab
:102be0006fa89700ffa897000fb197009fb19700bb
:102bf000e00f5000e08f5800e00f5900e08f5900bf
:102c0000cbff3a000800e000c9ff3c000d00e000e7
:102c1000020034000e18a300c5ff3a0089007800b6
:102c2000f4b79f00870478005fac97008a41780072
:102c30000b0578008fbd97000500e0001000320002
:102c40003b02be002b03be00e4af9f00f5af9f0028
:102c500086b79f0097b79f00e00f5200e08f5a00a1
:102c6000e00f5b00e08f5b00050032000c06e9001e
:102c700083707e000c06e90000c3b30080707e0004
:102c8000ffb297000500e000030032000c06e900e7
:102c900000c2b30080707e00480190000201e9008c
:102ca0000c0151008c8040000e0278008a017800ef
:102cb00009007800b0000700990090000188a30087
:102cc0000400320098009000810f500001003d0088
:102cd000010078004f0778004f06be004f05be0088
:102ce0004f04be00af01b100000006008201780071
:102cf00001017800f1ff270040033700840820001d
:102d0000848f50001d0032000d003c00140820008c
:102d1000848f50002700320002003c00040820008d
:102d20000400370024082000848f50003400320053
:102d300044082000848f500043003a0036003700da
:102d4000040a2000848f50002700320004003c0059
:102d500004092000848f50003b003a00280037000f
:102d6000020c2000828f50002f003200020f200042
:102d7000828f500034003a002b0037009380e90026
:102d80000200e00005003200810978001102fb001a
:102d9000cfa2de00612bb90028003700810978003e
:102da000114278000482fb008002eb006033b8001f
:102db0002200370013027800e40052000200e00015
:102dc00005003200810978001102be004fabde0021
:102dd0008603780019003700810978001102be00cf
:102de0006033b800150037009380e900810978004e
:102df00011027800cfa2de00612bb9000f0037006e
:102e000093027800e8805200810978003102be0008
:102e10002103be00090037009380e9000200e000b2
:102e200002003200f1ff37009380e9008109780049
:102e3000110278008002eb006033b8000498be00f5
:102e40000690be00100005000000050044082000a8
:102e5000848f50002500320008003c001408200038
:102e6000848f50001400320024082000848f50000a
:102e700024003200040820000c0037000409200060
:102e8000848f50001f00320004003c0084082000a2
:102e9000848f500024003a000e003700040a2000fe
:102ea000848f500011003200040c2000848f5000e9
:102eb0001d003a000d0037009380e9008109780079
:102ec0009100780001087800cf91de008288be0072
:102ed000140037009380e9008109780091007800a0
:102ee00001087800824878000e0037009380e900de
:102ef0008109780091007800010878008208780044
:102f0000080037009380e90081097800910078007b
:102f1000010878006112b900612bb9008498be00e5
:102f20008690be001000050000000500889fbe00ce
:102f3000000478004800900082047800808f5400dc
:102f400001003600800478000901780058009000e4
:102f50005dfd0700580090000900400050049800f3
:102f6000c800900089845000490498000048eb0094
:102f70004f04be0000000600f2874700889fbe0095
:102f80008a9fbe008c9fbe008e1f78008004780050
:102f9000010578000204780083057800610762006b
:102fa00002003a008b0f5400080039000801780035
:102fb0008a00780009007800dcff07008b0f5400be
:102fc00002003900880578001e0037000886550089
:102fd0000c017800f00f56000100360002012000bd
:102fe000010220007e805700f20107008c06780065
:102ff0000500370002012000fe805700090078001c
:10300000caff0700f0865600ef8f5600f9ff3e001a
:103010004461de0000ff2f000091b900020146006c
:10302000fe80570009007800c0ff07000e00e00096
:1030300004003a00080178008a007800090078004e
:10304000baff07000b0078004f0778004f06be005c
:103050004f05be004f04be002f01b1000000060066
:1030600000000500000005000000050000017800d8
:103070000040eb008080fb0081804000a3812000a5
:1030800063c278000404e00003003a00b08120002d
:1030900060c078000000060092017800934f520053
:1030a00004003a00b081200060c078000309e80005
:1030b000010037000040e800ea4f5000edff360005
:1030c00000000600f6874700889fbe008a9fbe006a
:1030d0008c9fbe008e1f78000005780001047800e8
:1030e00083057800040678000000eb00c0b79f005d
:1030f0008080eb00d1b79f00e0b79f00f2b79f0040
:103100000008200080bf9f00980078000100780030
:103110008004eb00010037008904e80030417800aa
:103120000204e0000300320053c2b300834f510099
:10313000f9ff3a000900e0000400320009017800bc
:103140000a00780079ff0700188c440018077800ff
:1031500050c2b3009e4f10003f013a000e07e80036
:103160000e0c780010003700cfb097000100a000cf
:103170000b003700cfb097000110a0000800370007
:10318000cfb097000120a00005003700cfb0970016
:103190000130a00002003700cfb097000140a0002e
:1031a000c1b79f00000ce80018007800904078003c
:1031b000b2c2b30082cf5000f1ff320007003c00e2
:1031c00002c2b30082cf5000f0ff320032c2b3001f
:1031d00082cf500007003a00efff3700d2c2b300a1
:1031e00082cf5000e0ff320002c3b30082cf500014
:1031f000e0ff3200a2c2b30082cf50000d003a00bf
:10320000000ce8001c80e900000e78001000780037
:10321000e0b79f000000e0000f003d00cfb0970036
:103220000100a200c1b79f000000ea00e0b79f00c4
:103230000900370039010700e0b79f00010037009f
:10324000000ce800180078009000fb000103b100ba
:10325000e98f5000faff36004fb097000008a30036
:10326000020032000010a100c0b79f0018007800d3
:10327000e1c2b30090cf100016003a008000eb00ce
:10328000d1b79f000000e800000c7800a1c2b30095
:1032900090cf100006003a00000ce8001c80e90006
:1032a000000e780010007800d0b79f0009003700aa
:1032b0001a010700d0b79f0001003700000ce8009a
:1032c000180078009000fb000103b100e98f500066
:1032d000faff36000800780064ff07008046780097
:1032e000180078001000fb00b601070091062000ce
:1032f000810f50003800320012003c0041062000cf
:10330000810f5000340032000a003c0011062000fa
:10331000810f50002000320031062000810f500044
:10332000a000320051022000810f5000bc003a0082
:10333000b400370071062000810f5000b8003c0037
:103340008800370001072000810f50005c00320028
:1033500007003c00e1062000810f50007a00320097
:10336000f1062000810f5000ad003a00390037000f
:1033700051072000810f50002700320081072000f4
:10338000810f50004200320031072000810f5000b1
:10339000a3003a008f0037008d80fb000c017800fd
:1033a00000fe2f000f004000b90107000000e00000
:1033b000a800320018007800000ce8009041780066
:1033c00002fe2f000f014100f88057000a0078002c
:1033d00024ff07000e0037008d80fb008c01780071
:1033e0001200200000fe2f000f00400043fe0700e7
:1033f0000000e00097003200180ce80002fe2f00e9
:103400000f014100f88057000a0078005efc0700b9
:1034100080844400900037008d80fb008c01780090
:103420000001eb0000fe2f000f00400033fe0700fc
:103430000000e00087003200180ce80002fe2f00b8
:103440000f014100f88057000a00780059fd07007d
:10345000efff37008d80fb008c0178000001eb004e
:1034600000fe2f000f00400024fe07000000e000d7
:1034700078003200180ce80002fe2f000f01410016
:10348000f88057000a00780098fc0700e0ff37003a
:103490008d80fb008c0178000001eb0000fe2f0006
:1034a0000f00400015fe07000000e0006900320038
:1034b00018007800000ce800904178001c003700ec
:1034c0008c0178000001eb00010f200000fe2f00ae
:1034d0000f00400009fe07000000e0005d00320020
:1034e000180ce8000fb097009fb097002fb197001d
:1034f000bfb19700e00f5000e08f5800e00f590077
:10350000e08f590009003a00cfb597006fb49700db
:103510002081200004fc07000b027800880178005d
:1035200000017800218120004700370083c7b300e5
:1035300002fe2f000f014100f88057000a007800ba
:1035400045fd0700b2ff37000b8144008d80fb0072
:103550008c01780000fe2f000f0040003bfe0700aa
:103560003c0037008d80fb000c01780000fe2f002e
:103570000f004000460107000000e0003500320067
:1035800018007800000ce8009041780002fe2f003f
:103590000f014100f88057000a007800b1fe0700d3
:1035a0009bff370000c8b30080cf560029003a00c7
:1035b000180ce8001c80e900000e7800104078002c
:1035c000e0df9f0013002000e2fd2f000f0141000b
:1035d0000800370000c8b30080cf56001d003a0035
:1035e000180ce8001c80e900000e78008001eb0058
:1035f00010017800f88057000a00780070fc07007e
:1036000083ff370000c8b30080cf560011003a0096
:10361000180ce8004fb29700efb197000800370090
:103620000e0c78000000eb00c0b79f00e0b79f00d1
:103630000080eb00d0b79f000002eb00840178000f
:1036400012002000818120000a0078004afe070055
:103650006fff3700180ce800090078004f0778006a
:103660004f06be004f05be004f04be006f01b10003
:10367000000006008200fa00889fbe008a1f7800c2
:103680000005780082047800c13f9f000004eb0031
:10369000100037000902780088017800a2f72f0097
:1036a0000f01410081f72f008f8040000a00780051
:1036b00084fe070008004000880f500004003d0011
:1036c000b0042000404288000084eb000400370072
:1036d000000478004f3897001004e000edff3a0036
:1036e000080078004f0578004f04be000080fa0003
:1036f0000000060080007800100020000202200078
:10370000828f500004003200e9805000e48f5000a6
:10371000010036000000eb0000000600889fbe009c
:103720008a1f7800000578000a0478009844780021
:103730000805e8000900fb00eeff07000000e000bc
:10374000f9ff3a00b0c2b30080cf54000500320048
:10375000d0c2b3008000eb0080cf540005003a00d7
:10376000020037008000eb0001003700110020004c
:103770000804e8000000eb00030037006a02b9000b
:10378000020052000003b0003801fb0003fd2f00cf
:1037900082814100e98f5100f8ff36000100e0000e
:1037a00001003a000000ea004f0578004f04be0017
:1037b00000000600889fbe008a9fbe00800478003b
:1037c0000200e0005b00320001407800814c78008c
:1037d00082814400f1f99f00e20f5100550036004c
:1037e00091449800a1449800e1f99f00d1f99f000d
:1037f000e60f51004f003600b1449800c1f99f0018
:10380000e80f51004b0036000905ea00630565002a
:103810000a8444000a055100c1ff2f00010565001c
:103820000080fb008000eb0012102000131020002d
:10383000e7000700008cbe000a01440060b99f0049
:1038400071b99f00e80f55003a0036002004980037
:1038500031049800400498005104980020b99f005a
:1038600031b99f0040b99f0051b99f00f80f550032
:10387000300036006004980071049800000c980035
:10388000110c9800200c9800310c9800400c980006
:10389000510c980020b19f0031b19f0040b19f00b2
:1038a00051b19f0060b19f0071b19f0000b99f00ae
:1038b00011b99f00640164007801410002044400d2
:1038c000020555006011b8000203be000002be00f0
:1038d0000403be006022b800000072008180720004
:1038e000020173008381730010003700009cbe004a
:1038f0000294be00400498005104980062049800ad
:1039000073049800000c9800110c9800220c980089
:10391000330c9800400c9800510c9800620c9800f1
:10392000730c98000a02b1000802b000ff0f5500a6
:10393000eeff3e00090078004f05be004f04be00b8
:103940000000060001017800800178000082680014
:103950000408a3000500320013003700324078004d
:10396000805978000004e00014003200030278005f
:103970000208a300f9ff3a000300780001003700b5
:103980000318780082007800b2017800f5ef2f006c
:10399000838242000382ea00048262000508280054
:1039a00005026200f6ff3200000278003141780023
:1039b000025878000204e000fbff3a00040078009f
:1039c00000000600f1fb2f0080804000f98f5000be
:1039d00001003e000050a00000000600f9ff370083
:1039e000f1f92f0080804000f98f500001003e0067
:1039f000f005b20000000600f9ff3700f28747002b
:103a00008e1f780002027800030178000000e000b9
:103a1000020032000007780001003700728757006b
:103a20008002eb000100e000010032008102e900a9
:103a300070805700060009000018eb000080eb00c2
:103a400080bf9f002310200093bf9f00aebf9f0048
:103a5000b1bf9f00c5bf9f000100e00003003d0013
:103a6000b10420004142880006003700004feb00ff
:103a7000eebf9f00debf9f0084007800708057007b
:103a8000220007004f0778002f01b1000000060058
:103a9000881f78000004780000082000808f500004
:103aa0001700350010082000808f50000b003400f4
:103ab00030082000808f500011003a0092007800fa
:103ac00068805000000978003002be002003be006c
:103ad000049cbe000694be000700370092027800e6
:103ae00064805200000978001000be001500070035
:103af000009cbe000294be001000200001003700b0
:103b00000000eb004f047800000006000200fa00fd
:103b1000881f780000047800e2bf9f00648157008e
:103b200008007800d3fe0700980090000148a30029
:103b3000010032000080eb004f0478000080fa00a2
:103b40000000060081037800d8f207000001be00e3
:103b50006000b8000478a30013003a006220e1007e
:103b600015003e000d0039008301d1000281d30011
:103b70008180d3008301d1000281d3008180d300f2
:103b80008301d1000281d3008180d3000538b000c9
:103b9000c42add00f300b2008381720007f0a700a1
:103ba00003f0a0000000060083ff270002002000b1
:103bb0006110b900f9ff370003ff2700f7ff370056
:103bc00014002000f8013700f4ff2f00f601370041
:103bd000020ab900001bb9000200b80081004200cf
:103be000810043000000060007f8270007836100fa
:103bf0000638e10004003a00f707200087836100df
:103c00008703710001003a0003f0a200889fbe0004
:103c10008a9fbe008c9fbe00470ade000480a10080
:103c2000c71ade000580a100070028000785600094
:103c300087856100f70f20000720e1009e00320019
:103c40000728e1009c003200010678000400e00033
:103c5000b4003200f7072000878060000170a000e8
:103c60000500e000c0003200f707200087816100f6
:103c70000370a000050652000f003a000b50e1004f
:103c80000b0032000308e10002003a000200e100ec
:103c90007e0032000204500083845800040031008a
:103ca0000001fd008101fd008402fd008a05fd0088
:103cb0006044b800210037000520e10005003d0008
:103cc0000001fd008101fd008402fd008a05fd0068
:103cd000050652007a60e100050035000170a10080
:103ce0004722dd00848070008a8070006300370006
:103cf0006044b800ef02660007ff2f000706660069
:103d00000500e00006003400f08312008714dd0097
:103d10000511de00071bdd00060171008519de00bc
:103d20007060e10005003500090478008204780025
:103d3000030178008001eb00700656000b50e10093
:103d400003003a000200400083804800040037006e
:103d500060041400e0841c000200580083805800b6
:103d60000188a300060032008100d1000080d3004a
:103d70008984d3000884d3000402e80027003700b8
:103d80000178a30025003a000100e00003003200a2
:103d90008186cf00698656000a0037008c0020001b
:103da0000000e00004003a00090078008804780070
:103db0000004eb00700252008086cf000d06460022
:103dc0000c06e9007060e100060035008000780014
:103dd00009007800880478000004eb0070065600a3
:103de000700252000c00e0000c0034008c08dd0072
:103df000f00316000703de00868070000c00dd0073
:103e0000074bde00060070008c4cdd000743de002f
:103e1000868474000c44dd000c0252006120e10035
:103e200020003500610160000700280087816400e0
:103e3000f7ff270087836400070374000300e00096
:103e40000600320082037300040032000000e80024
:103e5000e08048000188a3000e003a00f70f200020
:103e60000720e1004a003d000170a1004722dd006b
:103e7000810072008a8070000000be004f06be0004
:103e80004f05be004f04be00000006006000b800f1
:103e9000faff37008100d1000080d3000402e8005f
:103ea000eeff3700040178008901740079f3070000
:103eb0008a807000f1ff3700cff307000702780017
:103ec0000001fd008101fd00cbf3070087027800af
:103ed000850372000778a300040032000001fd0092
:103ee0008101fd00def30700e4ff37008503620077
:103ef0000768a300080032000b50e1000300320005
:103f0000f0ff2f00f1ff2700dcff37000001fd006c
:103f10008101fd00d9ff37000468a300d7ff3200fc
:103f2000faff3700f8ff2700888360000b003a0093
:103f30000000e00009003a008303640082837300fc
:103f4000020032000200be00ccff37000b50e1003f
:103f5000ceff3a000200be00c8ff37001400200068
:103f6000810064003eff3700f8ff2700888361006e
:103f700004003a000200e00002003a008c007800e1
:103f8000beff3700150020008301640039ff3700b1
:103f900001f827000000200081007500b7ff3700fe
:103fa000889fbe008a9fbe0030044200b0844a0051
:103fb00030054b0090854b006000b1000898be00b2
:103fc0000a90be000440e10005c8e10006d0e1000f
:103fd00007d8e10002003100680040001008e80046
:103fe0004f05be004f04be0000000600889fbe00c3
:103ff0008a9fbe003004be002005be000418540095
:1040000005985c0006185d0007985d00110020000f
:104010000440e10005c8e10006d0e10007d8e10056
:10402000010039008000eb00108810004f05be0031
:104030004f04be00000006001200fa00889fbe0078
:104040008a9fbe008c9fbe00e0b79f00f1b79f0023
:1040500082bf9f0093bf9f000605be000404be0000
:104060000000eb00d0b79f00c0b79f00b0b79f0023
:10407000a0b79f0090b79f00000678005fb197003f
:10408000cfb09700820141003fb097000200e000ee
:1040900004003d00370007007e805700c0ff070086
:1040a00003003700330007007e805700cfff070072
:1040b000dfb697000d00e0000c0035006fb29700ee
:1040c000ffb297000fbb97009fbb97001000200026
:1040d000010020006011b8000002720081827200ad
:1040e00002037300838373001b0007000c06e800c3
:1040f00001042000810f5600e0ff3a000d00e000af
:1041000004003d000802be000a03be007e80570086
:10411000a3ff07005fa897000000e00005003a0039
:104120001fb29700afb297003fb39700cfb397008d
:10413000090007006fb09700ffb097000fb9970014
:104140009fb997004f06be004f05be004f04be004a
:104150000080fa00000006000100070000000600d1
:10416000a4b79f00b5b79f00c6b79f00d7b79f0001
:10417000000006004f09de0082817100b3b79f0086
:104180004f01de008180400082807000a1b79f0057
:104190008fb097004f09de00000040000200700061
:1041a00090b79f007fa897004f01de0081804000fc
:1041b0008280700081b79f000d0007004f3ade003b
:1041c0000000400004007000f0af9f0008000700ee
:1041d0000402420085824a0006034b0087834b009d
:1041e000dfff07000802be000a03be000000060051
:1041f0002fb29700bfb297004fb39700dfb397007d
:1042000000000600881f780018002000881f780032
:1042100089ff07008f87e9004f047800000006003f
:10422000801feb0084ff07008f87e9000000060075
:10423000889fbe008a9fbe00e00f5000e08f5800ac
:10424000e00f5900e08f59000c003d006044b800b9
:104250006055b8000000540081805c0002015d00e0
:1042600083815d00180020001500070008003d0054
:10427000180007000004eb00050037000004eb0005
:104280000f00070002003d00120007001800200088
:10429000dcff07000800e000060032006022b800e2
:1042a0006033b8000000520081805a0002015b00b8
:1042b00083815b004f05be004f04be000000060076
:1042c000e00f5200e08f5a00e00f5b00e08f5b00d0
:1042d000000006006044b8006055b80004025400b5
:1042e00085825c0006035d0087835d000000060098
:1042f000889fbe008a9fbe008c1f7800e00f500090
:10430000e08f5800e00f5900e08f59000d003d008c
:104310006044b8006055b8000000540081805c0023
:1043200002015d0083815d001c0020000820e10087
:1043300009a8e1000ab0e1000bb8e1000d003d0062
:10434000080037000006eb00e00f5200e08f5a0033
:10435000e00f5b00e08f5b0006003d006044b800aa
:104360006055b8000402540085825c0006035d00bd
:1043700087835d00aaff07000c00e0000600320002
:104380006022b8006033b8000000520081805a00fb
:1043900002015b0083815b004f0678004f05be0081
:1043a0004f04be0000000600889fbe008a9fbe002a
:1043b000841f7800170007004f00780011003300b9
:1043c000f0ff2f00838f6c0006003b0004056500a2
:1043d0000a00a7000800370009f0a600100020001e
:1043e00008003700820f5400838f5c0003003900ff
:1043f0001000200001003e000000200009f0a7008e
:104400000000ea004f05be004f04be000000e000bf
:10441000000006000004be00a4f007000003be0078
:104420000405be000200be00a0f00700844f750026
:044430000000060082
:020000040000fa
:10443400434e000054200000004300004c52000092
:1044440020000000534500005420000000460000f6
:10445400494e0000200000002530000032640000b6
:104464006d0000002530000032640000730000007d
:10447400203a000020000000202d00002d20000024
:0c448400414c0000415200004d000000bf
:020000040000fa
:104490000000fa000080eb0060198800401f200037
:1044a00059020700c902a900c082a8006800a8003c
:1044b0006000a800c882a8006820a8006020a800aa
:1044c000c042a8006bc0a80063c0a80061058000be
:1044d000f0ff2800808060000000260001007000ce
:1044e000600588008660a9009660a8000028ef009b
:1044f0000228ef000868ef000080fa0000000600c4
:104500000000fa0000408000e30f50008e003200ef
:10451000e30f500005003e00e10f50000d00320097
:10452000e10f500074003e0007003700e50f500017
:10453000b3003200e50f5000a6003900e60f50002e
:10454000a6003200b4003700cd02a9000140fe00f1
:10455000b100370010168000700060000000e0001d
:1045600036003a0013e1a9000868ef0080bb200084
:104570005c02070011e1a90008c8bf000004e000c8
:104580002000320004c8bf000004e00003003a002d
:1045900005c8bf000004e0001a0032000ac8bf00ce
:1045a0000004e00006003a009d00070010c0b300c0
:1045b0000ae8b700a0212a009f00070096003700f4
:1045c0000cc8bf000004e0000500320050002000cd
:1045d0000040880013e1a8000c68ef0007003700d6
:1045e0000cc8bf000004e00004003a0010c0b30093
:1045f0000ce8b700400020000040880000000000e8
:104600008500370008c8bf000004e00009003a0038
:104610000468ef000568ef000028ef0010c0b30049
:104620000ce8b7000a68ef00f0212a0082000700ba
:10463000790037000028ef00770037000ac8bf0074
:104640000004e00071003a000868ef002003200039
:104650002402070008c8bf000004e0006d003a0013
:1046600050168000700060000000e0000b003a006f
:1046700010168000640060000000e00007003a00af
:1046800010c0b30007e8b70010c0b30006e8b700d9
:1046900020002000004088005f00370010168000d6
:1046a000640060000000e00006003a000668ef00c9
:1046b00010c0b30007e8b7002000200000408800c9
:1046c0005500370050168000700060000000e000c8
:1046d00006003a0010c0b30006e8b7000768ef0014
:1046e00020002000004088004b0037000b68ef00de
:1046f0000028ef0048003700c247220007c8bf006b
:104700008000fb0006c8bf000000fb0002000100a3
:1047100040222a0048000700800c2000f101070019
:104720000bc8bf00e94f50000300360050c0b30073
:1047300006e8b700380037000bc8bf000040e800ab
:104740000be8b7003400370061168000001020002d
:104750000080600000f0a7000000ea000000e9000f
:104760004f00de00004078000080fb006100600028
:104770004800dd00611680000180a100010070008a
:1047800060168800c24722008000eb000080eb002a
:104790000200010004c8bf000004e00006003a0067
:1047a00005c8bf000004e00003003a0060002000dc
:1047b0000040880018003700a0212a001e000700d2
:1047c0000a21ef0013e1a8005000200000408800fb
:1047d000110037000140fe000f0037000a68ef00ab
:1047e00013e1a900cd02a80090222a0012000700c0
:1047f00010c0b3000ce8b7000028ef000600370037
:104800000140fe000000000003003700000000002f
:1048100001003700000000000080fa0000000600e0
:104820000000fa00650007005000200000408800ea
:104830000080fa00000006003e00fa00601f9800a9
:1048400005c8bf000080fb00801f7800e0222a001e
:10485000801f78000e0078000ef70700e4875700ed
:1048600004c8bf008080fb0065004700811f7800fe
:1048700041232a00811f780006f70700e4875700cc
:104880006a004700ee18900020f707006a00470012
:104890008e00780013f707006a00470022f7070030
:1048a000ea0047000080400042002000a1232a00c7
:1048b00005f70700e50047006a00470009f7070011
:1048c00000408000e60f500007003a006a004700f1
:1048d00015f70700ea00470000804000a200200012
:1048e000e1232a00f8f607006a00470035010700b7
:1048f0000080fa00000006000200fa00004f780075
:104900001147980041802000914078001e407800b7
:1049100000c0400004e8b70004c8bf00e14f4000f9
:104920000c003a0005c8bf000004e0000900320096
:104930001e4078000004e00006003200b0c3b3005f
:1049400004e8b70005c8bf000040e90005e8b7006b
:104950000500370051802000914078001e409000f3
:1049600000c0400005e8b700418020009140780079
:10497000b0c3b30080cf5000080036004180200053
:104980009140780040ccb30000c0400004e8b7007c
:1049900005c8bf000040e80005e8b70051802000ce
:1049a00091407800b0c3b30080cf500001003600c2
:1049b0000568ef000080fa00000006000000fa0021
:1049c0001061a90091088000f0fc2f0000806000b9
:1049d0000040a000900888001221a90013a1a9009e
:1049e0004105800080ff2f00008060000010a000c3
:1049f000400588008500a9009500a80020a1270097
:104a0000700888000a21ef0013e1a80010c0b3006d
:104a10000ae8b7000080fa00000006000000fa0073
:104a2000c802a900c822a800cc02a800800020006b
:104a300080118800113a800000002700808060000b
:104a400000002600808f500003003a00c0002000c4
:104a5000c011880010003700113a800000002700c4
:104a60008080600000002500808f500003003a0025
:104a7000c0002000c011880007003700113a8000f4
:104a800000002700008060000000e00002003a0003
:104a900070062000c011880000002a0090118800d4
:104aa00087e0a90091058000f0ff28008080600069
:104ab00000002300010070009005880097e0a80026
:104ac00087c0a90091058000f08f2f000080600052
:104ad00000a0a0009005880097c0a90031e2a800be
:104ae0003342a8000080fa00000006000400fa002b
:104af000004f780011079800c8ff07000b0037002f
:104b00000000000091118000002020000080600063
:104b10000000e000fbff3a001e00fb00a01188002f
:104b20001e0090000000e900100798001e00900091
:104b30000000e000f2ff3a00000000009111800048
:104b400000102000008060000000e000fbff320049
:104b500031e2a9000080fa00000006000400fa001b
:104b6000100798000040eb0010479800110020004b
:104b700000c2b300ddff07001100200000c3b30036
:104b8000daff07001100200080c7b300d7ff07003d
:104b900030c0b300004f7800150037001e00fb0046
:104ba0004200dd009e0090000008de00004078001a
:104bb0006f406000104798001e409000e94f500081
:104bc000040034001e4090007043b000104798006d
:104bd000030037001e4090000043b00010479800cb
:104be000110020001e409000c0ff07001e4fe9008a
:104bf0001e4078000004e000e8ff3d0011002000a6
:104c000000c2b300b9ff07000000eb0010079800d6
:104c10000080fa00000006000600fa001007980065
:104c2000210798000040eb00104798001100200079
:104c300000c2b300adff07001100200000c3b300a5
:104c4000aaff07001100200080c7b300a7ff0700dc
:104c500070c0b300004f78001f0037001e00fb003b
:104c60004202dd001e019000ae019000f002120031
:104c700004003b008502ea000518de008000eb001e
:104c800004003700851add000410de000080720089
:104c90008418de00004078006f40600010479800e4
:104ca0001e409000e94f5000040034001e40900068
:104cb0007043b00010479800030037001e4090007a
:104cc0000043b00010479800110020001e409000e3
:104cd00086ff07001e4fe9001e4078000004e00038
:104ce000deff3d001100200000c2b3007fff07007f
:104cf0006000b80010079800210798000080fa00b3
:104d0000000006000800fa00889fbe0030079800e7
:104d10000040eb00004f78001100200000c2b300fb
:104d200072ff07001e0037003e0090008000eb007d
:104d30005cee07000004be001e80fb006400100053
:104d4000cf80de0054ee07000001be00000020000e
:104d50000112240036f107000001be000800be0069
:104d600067ee070031ee0700100798001e01900063
:104d7000d0cc2c000010b8004308de006a00b90057
:104d80000000780000005100404798004e4090001d
:104d90000043b0001100200054ff07001e4fe80040
:104da0001e407800e44f5000dfff36001100200065
:104db00000c2b3004dff07004f04be000080fa00a0
:104dc000000006000400fa00100798000000eb0045
:104dd000000f7800060037001e0090001e00400003
:104de000104078001100200040ff07001e0fe8006f
:104df0001e009000ccf507009e0f5000f6ff31001a
:104e00000080fa00000006000400fa001007980075
:104e10001e00900001022000810f50000b003200a4
:104e2000411f2000810f500005003200e80f5000a4
:104e300009003a000040eb00004f780008003700fe
:104e400060c6b300004f78000500370050c5b300be
:104e5000004f78000200370050c5b300004f7800c3
:104e600011028000000e2000010070001002880076
:104e7000213a8000f08f2f0000806000203a8800e7
:104e80001e81fb0080072000a10920003374200050
:104e9000804978008149780082497800120020001a
:104ea00060042000710520002374200080497800f0
:104eb000814978008249780000000000103a8000a3
:104ec000610060000000e000fcff3a001102800079
:104ed000f0f12f0000806000100288000080fa00ce
:104ee000000006000200fa00000f7800a01824005d
:104ef0009e007800808f500002003600a018240029
:104f0000000f78001061a90081088000f0fc2f00dc
:104f1000008060000050a000800888001021a900d7
:104f200011a1a90031058000f0ff28000080600079
:104f300000d0a0003005880084e0a90094e0a8001b
:104f4000800c20009e007800808f50000a003e00f8
:104f500081088000f0fc2f0000806000800888003d
:104f60009e007800a00f20000088b90000007800a3
:104f700060088800090037001e0078008000eb0000
:104f8000c8ed070072be2f0093072400bbee070098
:104f9000a6ed070000007800600888000621ef00f9
:104fa00011e1a8000140fe000080fa0000000600a8
:020000040000fa
:104fb000000800000c000000000000000c080000c9
:104fc0000200000002000000010000000e080000c6
:104fd00002000000000000001008000002000000b5
:104fe000000000003008000018000000020000006f
:104ff000000080003f000000c03f000000000000f3
:10500000dccfd1003500000000000000c0153f00db
:105010004808000002000000000000001208000024
:105020001e00000002000000286e69006c290000cc
:1050300025006800076c09004c836a009074a0008a
:105040007ac000008068880000846c0082008100c3
:04505000000000005c
:020000040000fa
:105054000000fa0070fe07000cfd070027fd0700a2
:04506400feff370014
:020000040000fa
:0200000401f009
:04000000ffffff00ff
:020000040000fa
:0200000401f009
:04000800ffffff00f7
:020000040000fa
:0200000401f009
:04000c0000000000f0
:020000040000fa
:0200000401f009
:040010007b00000071
:020000040000fa
:0200000401f009
:040014005f00000089
:020000040000fa
:0200000401f009
:04001800fb000000e9
:020000040000fa
:0200000401f009
:04001c00c20000001e
:020000040000fa
:0200000401f009
:04002000ff000000dd
:00000001FF
